{"abi":[{"type":"constructor","inputs":[{"name":"verifier_","type":"address","internalType":"address"}],"stateMutability":"nonpayable"},{"type":"function","name":"addAigcData","inputs":[{"name":"tokenId","type":"uint256","internalType":"uint256"},{"name":"prompt","type":"bytes","internalType":"bytes"},{"name":"aigcData","type":"bytes","internalType":"bytes"},{"name":"proof","type":"bytes","internalType":"bytes"}],"outputs":[],"stateMutability":"nonpayable"},{"type":"function","name":"approve","inputs":[{"name":"to","type":"address","internalType":"address"},{"name":"tokenId","type":"uint256","internalType":"uint256"}],"outputs":[],"stateMutability":"nonpayable"},{"type":"function","name":"balanceOf","inputs":[{"name":"owner","type":"address","internalType":"address"}],"outputs":[{"name":"","type":"uint256","internalType":"uint256"}],"stateMutability":"view"},{"type":"function","name":"getApproved","inputs":[{"name":"tokenId","type":"uint256","internalType":"uint256"}],"outputs":[{"name":"","type":"address","internalType":"address"}],"stateMutability":"view"},{"type":"function","name":"isApprovedForAll","inputs":[{"name":"owner","type":"address","internalType":"address"},{"name":"operator","type":"address","internalType":"address"}],"outputs":[{"name":"","type":"bool","internalType":"bool"}],"stateMutability":"view"},{"type":"function","name":"mint","inputs":[{"name":"prompt","type":"bytes","internalType":"bytes"},{"name":"aigcData","type":"bytes","internalType":"bytes"},{"name":"proof","type":"bytes","internalType":"bytes"}],"outputs":[{"name":"tokenId","type":"uint256","internalType":"uint256"}],"stateMutability":"nonpayable"},{"type":"function","name":"name","inputs":[],"outputs":[{"name":"","type":"string","internalType":"string"}],"stateMutability":"view"},{"type":"function","name":"ownerOf","inputs":[{"name":"tokenId","type":"uint256","internalType":"uint256"}],"outputs":[{"name":"","type":"address","internalType":"address"}],"stateMutability":"view"},{"type":"function","name":"safeTransferFrom","inputs":[{"name":"from","type":"address","internalType":"address"},{"name":"to","type":"address","internalType":"address"},{"name":"tokenId","type":"uint256","internalType":"uint256"}],"outputs":[],"stateMutability":"nonpayable"},{"type":"function","name":"safeTransferFrom","inputs":[{"name":"from","type":"address","internalType":"address"},{"name":"to","type":"address","internalType":"address"},{"name":"tokenId","type":"uint256","internalType":"uint256"},{"name":"data","type":"bytes","internalType":"bytes"}],"outputs":[],"stateMutability":"nonpayable"},{"type":"function","name":"setApprovalForAll","inputs":[{"name":"operator","type":"address","internalType":"address"},{"name":"approved","type":"bool","internalType":"bool"}],"outputs":[],"stateMutability":"nonpayable"},{"type":"function","name":"supportsInterface","inputs":[{"name":"interfaceId","type":"bytes4","internalType":"bytes4"}],"outputs":[{"name":"","type":"bool","internalType":"bool"}],"stateMutability":"view"},{"type":"function","name":"symbol","inputs":[],"outputs":[{"name":"","type":"string","internalType":"string"}],"stateMutability":"view"},{"type":"function","name":"tokenURI","inputs":[{"name":"tokenId","type":"uint256","internalType":"uint256"}],"outputs":[{"name":"","type":"string","internalType":"string"}],"stateMutability":"view"},{"type":"function","name":"totalSupply","inputs":[],"outputs":[{"name":"","type":"uint256","internalType":"uint256"}],"stateMutability":"view"},{"type":"function","name":"transferFrom","inputs":[{"name":"from","type":"address","internalType":"address"},{"name":"to","type":"address","internalType":"address"},{"name":"tokenId","type":"uint256","internalType":"uint256"}],"outputs":[],"stateMutability":"nonpayable"},{"type":"function","name":"verifier","inputs":[],"outputs":[{"name":"","type":"address","internalType":"contract IVerifier"}],"stateMutability":"view"},{"type":"function","name":"verify","inputs":[{"name":"prompt","type":"bytes","internalType":"bytes"},{"name":"aigcData","type":"bytes","internalType":"bytes"},{"name":"proof","type":"bytes","internalType":"bytes"}],"outputs":[{"name":"success","type":"bool","internalType":"bool"}],"stateMutability":"view"},{"type":"event","name":"AigcData","inputs":[{"name":"tokenId","type":"uint256","indexed":true,"internalType":"uint256"},{"name":"prompt","type":"bytes","indexed":true,"internalType":"bytes"},{"name":"aigcData","type":"bytes","indexed":false,"internalType":"bytes"},{"name":"proof","type":"bytes","indexed":false,"internalType":"bytes"}],"anonymous":false},{"type":"event","name":"Approval","inputs":[{"name":"owner","type":"address","indexed":true,"internalType":"address"},{"name":"approved","type":"address","indexed":true,"internalType":"address"},{"name":"tokenId","type":"uint256","indexed":true,"internalType":"uint256"}],"anonymous":false},{"type":"event","name":"ApprovalForAll","inputs":[{"name":"owner","type":"address","indexed":true,"internalType":"address"},{"name":"operator","type":"address","indexed":true,"internalType":"address"},{"name":"approved","type":"bool","indexed":false,"internalType":"bool"}],"anonymous":false},{"type":"event","name":"Transfer","inputs":[{"name":"from","type":"address","indexed":true,"internalType":"address"},{"name":"to","type":"address","indexed":true,"internalType":"address"},{"name":"tokenId","type":"uint256","indexed":true,"internalType":"uint256"}],"anonymous":false},{"type":"error","name":"ERC721IncorrectOwner","inputs":[{"name":"sender","type":"address","internalType":"address"},{"name":"tokenId","type":"uint256","internalType":"uint256"},{"name":"owner","type":"address","internalType":"address"}]},{"type":"error","name":"ERC721InsufficientApproval","inputs":[{"name":"operator","type":"address","internalType":"address"},{"name":"tokenId","type":"uint256","internalType":"uint256"}]},{"type":"error","name":"ERC721InvalidApprover","inputs":[{"name":"approver","type":"address","internalType":"address"}]},{"type":"error","name":"ERC721InvalidOperator","inputs":[{"name":"operator","type":"address","internalType":"address"}]},{"type":"error","name":"ERC721InvalidOwner","inputs":[{"name":"owner","type":"address","internalType":"address"}]},{"type":"error","name":"ERC721InvalidReceiver","inputs":[{"name":"receiver","type":"address","internalType":"address"}]},{"type":"error","name":"ERC721InvalidSender","inputs":[{"name":"sender","type":"address","internalType":"address"}]},{"type":"error","name":"ERC721NonexistentToken","inputs":[{"name":"tokenId","type":"uint256","internalType":"uint256"}]}],"bytecode":{"object":"0x608060405234801562000010575f80fd5b5060405162001887380380620018878339810160408190526200003391620000c3565b604051806040016040528060128152602001714f6e2d636861696e204149204f7261636c6560701b815250604051806040016040528060038152602001624f414f60e81b815250815f90816200008a919062000192565b50600162000099828262000192565b5050600780546001600160a01b0319166001600160a01b039390931692909217909155506200025a565b5f60208284031215620000d4575f80fd5b81516001600160a01b0381168114620000eb575f80fd5b9392505050565b634e487b7160e01b5f52604160045260245ffd5b600181811c908216806200011b57607f821691505b6020821081036200013a57634e487b7160e01b5f52602260045260245ffd5b50919050565b601f8211156200018d575f81815260208120601f850160051c81016020861015620001685750805b601f850160051c820191505b81811015620001895782815560010162000174565b5050505b505050565b81516001600160401b03811115620001ae57620001ae620000f2565b620001c681620001bf845462000106565b8462000140565b602080601f831160018114620001fc575f8415620001e45750858301515b5f19600386901b1c1916600185901b17855562000189565b5f85815260208120601f198616915b828110156200022c578886015182559484019460019091019084016200020b565b50858210156200024a57878501515f19600388901b60f8161c191681555b5050505050600190811b01905550565b61161f80620002685f395ff3fe608060405234801561000f575f80fd5b5060043610610111575f3560e01c806370a082311161009e578063b7e2a06c1161006e578063b7e2a06c14610236578063b88d4fde14610249578063c87b56dd1461025c578063de8f50a11461026f578063e985e9c514610282575f80fd5b806370a08231146101f557806395d89b4114610208578063a22cb46514610210578063aea3050714610223575f80fd5b806318160ddd116100e457806318160ddd1461019257806323b872dd146101a95780632b7ac3f3146101bc57806342842e0e146101cf5780636352211e146101e2575f80fd5b806301ffc9a71461011557806306fdde031461013d578063081812fc14610152578063095ea7b31461017d575b5f80fd5b610128610123366004610ee4565b610295565b60405190151581526020015b60405180910390f35b6101456102f5565b6040516101349190610f53565b610165610160366004610f65565b610384565b6040516001600160a01b039091168152602001610134565b61019061018b366004610f90565b6103ab565b005b61019b60065481565b604051908152602001610134565b6101906101b7366004610fba565b6103ba565b600754610165906001600160a01b031681565b6101906101dd366004610fba565b610448565b6101656101f0366004610f65565b610467565b61019b610203366004610ff8565b610471565b6101456104b6565b61019061021e366004611020565b6104c5565b61019061023136600461109c565b6104d0565b61019b610244366004611138565b6105e2565b610190610257366004611268565b610687565b61014561026a366004610f65565b61069f565b61012861027d366004611138565b6106d0565b6101286102903660046112d0565b6107a1565b5f6001600160e01b031982166301ffc9a760e01b14806102c557506001600160e01b0319821663da0d82f560e01b145b806102e057506001600160e01b03198216635b5e139f60e01b145b806102ef57506102ef826107ce565b92915050565b60605f8054610303906112fc565b80601f016020809104026020016040519081016040528092919081815260200182805461032f906112fc565b801561037a5780601f106103515761010080835404028352916020019161037a565b820191905f5260205f20905b81548152906001019060200180831161035d57829003601f168201915b5050505050905090565b5f61038e8261081d565b505f828152600460205260409020546001600160a01b03166102ef565b6103b6828233610855565b5050565b6001600160a01b0382166103e857604051633250574960e11b81525f60048201526024015b60405180910390fd5b5f6103f4838333610862565b9050836001600160a01b0316816001600160a01b031614610442576040516364283d7b60e01b81526001600160a01b03808616600483015260248201849052821660448201526064016103df565b50505050565b61046283838360405180602001604052805f815250610687565b505050565b5f6102ef8261081d565b5f6001600160a01b03821661049b576040516322718ad960e21b81525f60048201526024016103df565b506001600160a01b03165f9081526003602052604090205490565b606060018054610303906112fc565b6103b6338383610954565b5f6104da88610467565b6001600160a01b0316036105305760405162461bcd60e51b815260206004820152601a60248201527f455243373030373a206e6f6e6578697374656e7420746f6b656e00000000000060448201526064016103df565b61053e8686868686866106d0565b6105835760405162461bcd60e51b815260206004820152601660248201527522a9219b98181b9d1034b73b30b634b210383937b7b360511b60448201526064016103df565b8585604051610593929190611334565b6040518091039020877f65deac95b53ba76b9cdc6cf446af81731e1218c91eaf9811a95d28bde23b893e868686866040516105d1949392919061136b565b60405180910390a350505050505050565b5f8080806105f28789018961139c565b919450925090506001600160a01b03821633146106485760405162461bcd60e51b815260206004820152601460248201527313db9b1e48185d5d1a1bdc8818d85b881b5a5b9d60621b60448201526064016103df565b600654935061065733856109f2565b610666848b8b8b8b8b8b6104d0565b60068054905f610675836113f5565b91905055505050509695505050505050565b6106928484846103ba565b6104423385858585610a0b565b60606106aa82610b33565b6040516020016106ba919061140d565b6040516020818303038152906040529050919050565b5f806106de88888888610c38565b6040805160018082528183019092529192505f91906020808301908036833701905050905081815f8151811061071657610716611466565b6020908102919091010152600754604051631e8e1e1360e01b81526001600160a01b0390911690631e8e1e13906107559088908890869060040161147a565b602060405180830381865afa158015610770573d5f803e3d5ffd5b505050506040513d601f19601f8201168201806040525081019061079491906114d1565b9998505050505050505050565b6001600160a01b039182165f90815260056020908152604080832093909416825291909152205460ff1690565b5f6001600160e01b031982166380ac58cd60e01b14806107fe57506001600160e01b03198216635b5e139f60e01b145b806102ef57506301ffc9a760e01b6001600160e01b03198316146102ef565b5f818152600260205260408120546001600160a01b0316806102ef57604051637e27328960e01b8152600481018490526024016103df565b6104628383836001610c8b565b5f828152600260205260408120546001600160a01b039081169083161561088e5761088e818486610d8f565b6001600160a01b038116156108c8576108a95f855f80610c8b565b6001600160a01b0381165f90815260036020526040902080545f190190555b6001600160a01b038516156108f6576001600160a01b0385165f908152600360205260409020805460010190555b5f8481526002602052604080822080546001600160a01b0319166001600160a01b0389811691821790925591518793918516917fddf252ad1be2c89b69c2b068fc378daa952ba7f163c4a11628f55a4df523b3ef91a4949350505050565b6001600160a01b03821661098657604051630b61174360e31b81526001600160a01b03831660048201526024016103df565b6001600160a01b038381165f81815260056020908152604080832094871680845294825291829020805460ff191686151590811790915591519182527f17307eab39ab6107e8899845ad3d59bd9653f200f220920489ca2b5937696c31910160405180910390a3505050565b6103b6828260405180602001604052805f815250610df3565b6001600160a01b0383163b15610b2c57604051630a85bd0160e11b81526001600160a01b0384169063150b7a0290610a4d9088908890879087906004016114ec565b6020604051808303815f875af1925050508015610a87575060408051601f3d908101601f19168201909252610a8491810190611528565b60015b610aee573d808015610ab4576040519150601f19603f3d011682016040523d82523d5f602084013e610ab9565b606091505b5080515f03610ae657604051633250574960e11b81526001600160a01b03851660048201526024016103df565b805181602001fd5b6001600160e01b03198116630a85bd0160e11b14610b2a57604051633250574960e11b81526001600160a01b03851660048201526024016103df565b505b5050505050565b6060815f03610b595750506040805180820190915260018152600360fc1b602082015290565b815f5b8115610b825780610b6c816113f5565b9150610b7b9050600a83611557565b9150610b5c565b5f8167ffffffffffffffff811115610b9c57610b9c6111cb565b6040519080825280601f01601f191660200182016040528015610bc6576020820181803683370190505b5090505b8415610c3057610bdb60018361156a565b9150610be8600a8661157d565b610bf3906030611590565b60f81b818381518110610c0857610c08611466565b60200101906001600160f81b03191690815f1a905350610c29600a86611557565b9450610bca565b949350505050565b5f808080610c488587018761139c565b9250925092508787848484604051602001610c679594939291906115a3565b60408051601f19818403018152919052805160209091012098975050505050505050565b8080610c9f57506001600160a01b03821615155b15610d60575f610cae8461081d565b90506001600160a01b03831615801590610cda5750826001600160a01b0316816001600160a01b031614155b8015610ced5750610ceb81846107a1565b155b15610d165760405163a9fbf51f60e01b81526001600160a01b03841660048201526024016103df565b8115610d5e5783856001600160a01b0316826001600160a01b03167f8c5be1e5ebec7d5bd14f71427d1e84f3dd0314c0f7b2291e5b200ac8c7c3b92560405160405180910390a45b505b50505f90815260046020526040902080546001600160a01b0319166001600160a01b0392909216919091179055565b610d9a838383610e0a565b610462576001600160a01b038316610dc857604051637e27328960e01b8152600481018290526024016103df565b60405163177e802f60e01b81526001600160a01b0383166004820152602481018290526044016103df565b610dfd8383610e6b565b610462335f858585610a0b565b5f6001600160a01b03831615801590610c305750826001600160a01b0316846001600160a01b03161480610e435750610e4384846107a1565b80610c305750505f908152600460205260409020546001600160a01b03908116911614919050565b6001600160a01b038216610e9457604051633250574960e11b81525f60048201526024016103df565b5f610ea083835f610862565b90506001600160a01b03811615610462576040516339e3563760e11b81525f60048201526024016103df565b6001600160e01b031981168114610ee1575f80fd5b50565b5f60208284031215610ef4575f80fd5b8135610eff81610ecc565b9392505050565b5f5b83811015610f20578181015183820152602001610f08565b50505f910152565b5f8151808452610f3f816020860160208601610f06565b601f01601f19169290920160200192915050565b602081525f610eff6020830184610f28565b5f60208284031215610f75575f80fd5b5035919050565b6001600160a01b0381168114610ee1575f80fd5b5f8060408385031215610fa1575f80fd5b8235610fac81610f7c565b946020939093013593505050565b5f805f60608486031215610fcc575f80fd5b8335610fd781610f7c565b92506020840135610fe781610f7c565b929592945050506040919091013590565b5f60208284031215611008575f80fd5b8135610eff81610f7c565b8015158114610ee1575f80fd5b5f8060408385031215611031575f80fd5b823561103c81610f7c565b9150602083013561104c81611013565b809150509250929050565b5f8083601f840112611067575f80fd5b50813567ffffffffffffffff81111561107e575f80fd5b602083019150836020828501011115611095575f80fd5b9250929050565b5f805f805f805f6080888a0312156110b2575f80fd5b87359650602088013567ffffffffffffffff808211156110d0575f80fd5b6110dc8b838c01611057565b909850965060408a01359150808211156110f4575f80fd5b6111008b838c01611057565b909650945060608a0135915080821115611118575f80fd5b506111258a828b01611057565b989b979a50959850939692959293505050565b5f805f805f806060878903121561114d575f80fd5b863567ffffffffffffffff80821115611164575f80fd5b6111708a838b01611057565b90985096506020890135915080821115611188575f80fd5b6111948a838b01611057565b909650945060408901359150808211156111ac575f80fd5b506111b989828a01611057565b979a9699509497509295939492505050565b634e487b7160e01b5f52604160045260245ffd5b5f82601f8301126111ee575f80fd5b813567ffffffffffffffff80821115611209576112096111cb565b604051601f8301601f19908116603f01168101908282118183101715611231576112316111cb565b81604052838152866020858801011115611249575f80fd5b836020870160208301375f602085830101528094505050505092915050565b5f805f806080858703121561127b575f80fd5b843561128681610f7c565b9350602085013561129681610f7c565b925060408501359150606085013567ffffffffffffffff8111156112b8575f80fd5b6112c4878288016111df565b91505092959194509250565b5f80604083850312156112e1575f80fd5b82356112ec81610f7c565b9150602083013561104c81610f7c565b600181811c9082168061131057607f821691505b60208210810361132e57634e487b7160e01b5f52602260045260245ffd5b50919050565b818382375f9101908152919050565b81835281816020850137505f828201602090810191909152601f909101601f19169091010190565b604081525f61137e604083018688611343565b8281036020840152611391818587611343565b979650505050505050565b5f805f606084860312156113ae575f80fd5b833567ffffffffffffffff8111156113c4575f80fd5b6113d0868287016111df565b9350506020840135610fe781610f7c565b634e487b7160e01b5f52601160045260245ffd5b5f60018201611406576114066113e1565b5060010190565b7f68747470733a2f2f657263373030372e757261746d616e67756e2e6f76682f6181526b70692f6d657461646174612f60a01b60208201525f825161145981602c850160208701610f06565b91909101602c0192915050565b634e487b7160e01b5f52603260045260245ffd5b604081525f61148d604083018587611343565b8281036020848101919091528451808352858201928201905f5b818110156114c3578451835293830193918301916001016114a7565b509098975050505050505050565b5f602082840312156114e1575f80fd5b8151610eff81611013565b6001600160a01b03858116825284166020820152604081018390526080606082018190525f9061151e90830184610f28565b9695505050505050565b5f60208284031215611538575f80fd5b8151610eff81610ecc565b634e487b7160e01b5f52601260045260245ffd5b5f8261156557611565611543565b500490565b818103818111156102ef576102ef6113e1565b5f8261158b5761158b611543565b500690565b808201808211156102ef576102ef6113e1565b848682375f8582015f815285516115be818360208a01610f06565b60609590951b6bffffffffffffffffffffffff1916940193845250506014820152603401939250505056fea2646970667358221220dd9b0c996c46a2ff05ebc387965ef1079bf2fb7373fe8c5c590143ebf2ca4c5364736f6c63430008140033","linkReferences":{}},"methodIdentifiers":{"addAigcData(uint256,bytes,bytes,bytes)":"aea30507","approve(address,uint256)":"095ea7b3","balanceOf(address)":"70a08231","getApproved(uint256)":"081812fc","isApprovedForAll(address,address)":"e985e9c5","mint(bytes,bytes,bytes)":"b7e2a06c","name()":"06fdde03","ownerOf(uint256)":"6352211e","safeTransferFrom(address,address,uint256)":"42842e0e","safeTransferFrom(address,address,uint256,bytes)":"b88d4fde","setApprovalForAll(address,bool)":"a22cb465","supportsInterface(bytes4)":"01ffc9a7","symbol()":"95d89b41","tokenURI(uint256)":"c87b56dd","totalSupply()":"18160ddd","transferFrom(address,address,uint256)":"23b872dd","verifier()":"2b7ac3f3","verify(bytes,bytes,bytes)":"de8f50a1"},"id":2}