{"abi":[{"type":"constructor","inputs":[{"name":"verifier_","type":"address","internalType":"address"}],"stateMutability":"nonpayable"},{"type":"function","name":"addAigcData","inputs":[{"name":"tokenId","type":"uint256","internalType":"uint256"},{"name":"prompt","type":"bytes","internalType":"bytes"},{"name":"aigcData","type":"bytes","internalType":"bytes"},{"name":"proof","type":"bytes","internalType":"bytes"}],"outputs":[],"stateMutability":"nonpayable"},{"type":"function","name":"approve","inputs":[{"name":"to","type":"address","internalType":"address"},{"name":"tokenId","type":"uint256","internalType":"uint256"}],"outputs":[],"stateMutability":"nonpayable"},{"type":"function","name":"balanceOf","inputs":[{"name":"owner","type":"address","internalType":"address"}],"outputs":[{"name":"","type":"uint256","internalType":"uint256"}],"stateMutability":"view"},{"type":"function","name":"getApproved","inputs":[{"name":"tokenId","type":"uint256","internalType":"uint256"}],"outputs":[{"name":"","type":"address","internalType":"address"}],"stateMutability":"view"},{"type":"function","name":"hashInputs","inputs":[{"name":"prompt","type":"bytes","internalType":"bytes"},{"name":"aigcData","type":"bytes","internalType":"bytes"}],"outputs":[{"name":"","type":"uint256","internalType":"uint256"}],"stateMutability":"pure"},{"type":"function","name":"isApprovedForAll","inputs":[{"name":"owner","type":"address","internalType":"address"},{"name":"operator","type":"address","internalType":"address"}],"outputs":[{"name":"","type":"bool","internalType":"bool"}],"stateMutability":"view"},{"type":"function","name":"mint","inputs":[{"name":"prompt","type":"bytes","internalType":"bytes"},{"name":"aigcData","type":"bytes","internalType":"bytes"},{"name":"proof","type":"bytes","internalType":"bytes"}],"outputs":[{"name":"tokenId","type":"uint256","internalType":"uint256"}],"stateMutability":"nonpayable"},{"type":"function","name":"name","inputs":[],"outputs":[{"name":"","type":"string","internalType":"string"}],"stateMutability":"view"},{"type":"function","name":"ownerOf","inputs":[{"name":"tokenId","type":"uint256","internalType":"uint256"}],"outputs":[{"name":"","type":"address","internalType":"address"}],"stateMutability":"view"},{"type":"function","name":"safeTransferFrom","inputs":[{"name":"from","type":"address","internalType":"address"},{"name":"to","type":"address","internalType":"address"},{"name":"tokenId","type":"uint256","internalType":"uint256"}],"outputs":[],"stateMutability":"nonpayable"},{"type":"function","name":"safeTransferFrom","inputs":[{"name":"from","type":"address","internalType":"address"},{"name":"to","type":"address","internalType":"address"},{"name":"tokenId","type":"uint256","internalType":"uint256"},{"name":"data","type":"bytes","internalType":"bytes"}],"outputs":[],"stateMutability":"nonpayable"},{"type":"function","name":"setApprovalForAll","inputs":[{"name":"operator","type":"address","internalType":"address"},{"name":"approved","type":"bool","internalType":"bool"}],"outputs":[],"stateMutability":"nonpayable"},{"type":"function","name":"supportsInterface","inputs":[{"name":"interfaceId","type":"bytes4","internalType":"bytes4"}],"outputs":[{"name":"","type":"bool","internalType":"bool"}],"stateMutability":"view"},{"type":"function","name":"symbol","inputs":[],"outputs":[{"name":"","type":"string","internalType":"string"}],"stateMutability":"view"},{"type":"function","name":"tokenURI","inputs":[{"name":"tokenId","type":"uint256","internalType":"uint256"}],"outputs":[{"name":"","type":"string","internalType":"string"}],"stateMutability":"view"},{"type":"function","name":"totalSupply","inputs":[],"outputs":[{"name":"","type":"uint256","internalType":"uint256"}],"stateMutability":"view"},{"type":"function","name":"transferFrom","inputs":[{"name":"from","type":"address","internalType":"address"},{"name":"to","type":"address","internalType":"address"},{"name":"tokenId","type":"uint256","internalType":"uint256"}],"outputs":[],"stateMutability":"nonpayable"},{"type":"function","name":"verifier","inputs":[],"outputs":[{"name":"","type":"address","internalType":"contract IVerifier"}],"stateMutability":"view"},{"type":"function","name":"verify","inputs":[{"name":"publicInput","type":"bytes","internalType":"bytes"},{"name":"aigcData","type":"bytes","internalType":"bytes"},{"name":"proof","type":"bytes","internalType":"bytes"}],"outputs":[{"name":"success","type":"bool","internalType":"bool"}],"stateMutability":"view"},{"type":"event","name":"AigcData","inputs":[{"name":"tokenId","type":"uint256","indexed":true,"internalType":"uint256"},{"name":"prompt","type":"bytes","indexed":true,"internalType":"bytes"},{"name":"aigcData","type":"bytes","indexed":false,"internalType":"bytes"},{"name":"proof","type":"bytes","indexed":false,"internalType":"bytes"}],"anonymous":false},{"type":"event","name":"Approval","inputs":[{"name":"owner","type":"address","indexed":true,"internalType":"address"},{"name":"approved","type":"address","indexed":true,"internalType":"address"},{"name":"tokenId","type":"uint256","indexed":true,"internalType":"uint256"}],"anonymous":false},{"type":"event","name":"ApprovalForAll","inputs":[{"name":"owner","type":"address","indexed":true,"internalType":"address"},{"name":"operator","type":"address","indexed":true,"internalType":"address"},{"name":"approved","type":"bool","indexed":false,"internalType":"bool"}],"anonymous":false},{"type":"event","name":"Transfer","inputs":[{"name":"from","type":"address","indexed":true,"internalType":"address"},{"name":"to","type":"address","indexed":true,"internalType":"address"},{"name":"tokenId","type":"uint256","indexed":true,"internalType":"uint256"}],"anonymous":false},{"type":"error","name":"ERC721IncorrectOwner","inputs":[{"name":"sender","type":"address","internalType":"address"},{"name":"tokenId","type":"uint256","internalType":"uint256"},{"name":"owner","type":"address","internalType":"address"}]},{"type":"error","name":"ERC721InsufficientApproval","inputs":[{"name":"operator","type":"address","internalType":"address"},{"name":"tokenId","type":"uint256","internalType":"uint256"}]},{"type":"error","name":"ERC721InvalidApprover","inputs":[{"name":"approver","type":"address","internalType":"address"}]},{"type":"error","name":"ERC721InvalidOperator","inputs":[{"name":"operator","type":"address","internalType":"address"}]},{"type":"error","name":"ERC721InvalidOwner","inputs":[{"name":"owner","type":"address","internalType":"address"}]},{"type":"error","name":"ERC721InvalidReceiver","inputs":[{"name":"receiver","type":"address","internalType":"address"}]},{"type":"error","name":"ERC721InvalidSender","inputs":[{"name":"sender","type":"address","internalType":"address"}]},{"type":"error","name":"ERC721NonexistentToken","inputs":[{"name":"tokenId","type":"uint256","internalType":"uint256"}]}],"bytecode":{"object":"0x608060405234801562000010575f80fd5b5060405162001c5c38038062001c5c8339810160408190526200003391620000c3565b604051806040016040528060128152602001714f6e2d636861696e204149204f7261636c6560701b815250604051806040016040528060038152602001624f414f60e81b815250815f90816200008a919062000192565b50600162000099828262000192565b5050600780546001600160a01b0319166001600160a01b039390931692909217909155506200025a565b5f60208284031215620000d4575f80fd5b81516001600160a01b0381168114620000eb575f80fd5b9392505050565b634e487b7160e01b5f52604160045260245ffd5b600181811c908216806200011b57607f821691505b6020821081036200013a57634e487b7160e01b5f52602260045260245ffd5b50919050565b601f8211156200018d575f81815260208120601f850160051c81016020861015620001685750805b601f850160051c820191505b81811015620001895782815560010162000174565b5050505b505050565b81516001600160401b03811115620001ae57620001ae620000f2565b620001c681620001bf845462000106565b8462000140565b602080601f831160018114620001fc575f8415620001e45750858301515b5f19600386901b1c1916600185901b17855562000189565b5f85815260208120601f198616915b828110156200022c578886015182559484019460019091019084016200020b565b50858210156200024a57878501515f19600388901b60f8161c191681555b5050505050600190811b01905550565b6119f480620002685f395ff3fe608060405234801561000f575f80fd5b506004361061011c575f3560e01c806370a08231116100a9578063b7e2a06c1161006e578063b7e2a06c14610254578063b88d4fde14610267578063c87b56dd1461027a578063de8f50a11461028d578063e985e9c5146102a0575f80fd5b806370a08231146102005780638c9112761461021357806395d89b4114610226578063a22cb4651461022e578063aea3050714610241575f80fd5b806318160ddd116100ef57806318160ddd1461019d57806323b872dd146101b45780632b7ac3f3146101c757806342842e0e146101da5780636352211e146101ed575f80fd5b806301ffc9a71461012057806306fdde0314610148578063081812fc1461015d578063095ea7b314610188575b5f80fd5b61013361012e3660046110b2565b6102b3565b60405190151581526020015b60405180910390f35b610150610313565b60405161013f9190611121565b61017061016b366004611133565b6103a2565b6040516001600160a01b03909116815260200161013f565b61019b610196366004611165565b6103c9565b005b6101a660065481565b60405190815260200161013f565b61019b6101c236600461118d565b6103d8565b600754610170906001600160a01b031681565b61019b6101e836600461118d565b610466565b6101706101fb366004611133565b610485565b6101a661020e3660046111c6565b61048f565b6101a6610221366004611224565b6104d4565b6101506105c5565b61019b61023c366004611298565b6105d4565b61019b61024f3660046112cd565b6105df565b6101a6610262366004611369565b61069e565b61019b6102753660046114c2565b610724565b610150610288366004611133565b61073c565b61013361029b366004611369565b61076d565b6101336102ae366004611526565b61083b565b5f6001600160e01b031982166301ffc9a760e01b14806102e357506001600160e01b0319821663da0d82f560e01b145b806102fe57506001600160e01b03198216635b5e139f60e01b145b8061030d575061030d82610868565b92915050565b60605f805461032190611557565b80601f016020809104026020016040519081016040528092919081815260200182805461034d90611557565b80156103985780601f1061036f57610100808354040283529160200191610398565b820191905f5260205f20905b81548152906001019060200180831161037b57829003601f168201915b5050505050905090565b5f6103ac826108b7565b505f828152600460205260409020546001600160a01b031661030d565b6103d48282336108ef565b5050565b6001600160a01b03821661040657604051633250574960e11b81525f60048201526024015b60405180910390fd5b5f6104128383336108fc565b9050836001600160a01b0316816001600160a01b031614610460576040516364283d7b60e01b81526001600160a01b03808616600483015260248201849052821660448201526064016103fd565b50505050565b61048083838360405180602001604052805f815250610724565b505050565b5f61030d826108b7565b5f6001600160a01b0382166104b9576040516322718ad960e21b81525f60048201526024016103fd565b506001600160a01b03165f9081526003602052604090205490565b5f8080806104e48587018761158f565b9250925092505f5f8051602061197f8339815191528989604051610509929190611611565b60405190819003902061051c9190611634565b845160208601209091505f90610540905f8051602061197f83398151915290611634565b845160208601209091505f90610564905f8051602061197f83398151915290611634565b845160208601209091505f90610588905f8051602061197f83398151915290611634565b90505f6105b46040518060800160405280878152602001868152602001858152602001848152506109ee565b9d9c50505050505050505050505050565b60606001805461032190611557565b6103d43383836109f8565b5f6105e988610485565b6001600160a01b03160361063f5760405162461bcd60e51b815260206004820152601a60248201527f455243373030373a206e6f6e6578697374656e7420746f6b656e00000000000060448201526064016103fd565b858560405161064f929190611611565b6040518091039020877f65deac95b53ba76b9cdc6cf446af81731e1218c91eaf9811a95d28bde23b893e8686868660405161068d949392919061166f565b60405180910390a350505050505050565b5f6106ad87878787878761076d565b6106e95760405162461bcd60e51b815260206004820152600d60248201526c24b73b30b634b210383937b7b360991b60448201526064016103fd565b506006546106f73382610a96565b610706818888888888886105df565b60068054905f610715836116b4565b91905055509695505050505050565b61072f8484846103d8565b6104603385858585610aaf565b606061074782610bd7565b60405160200161075791906116cc565b6040516020818303038152906040529050919050565b5f80808061077d85870187611776565b9250925092505f60405180602001604052805f8051602061197f8339815191528d8d906107aa91906117fe565b6107b49190611634565b90526007546040516343753b4d60e01b81529192506001600160a01b0316906343753b4d906107ed90879087908790879060040161183d565b602060405180830381865afa158015610808573d5f803e3d5ffd5b505050506040513d601f19601f8201168201806040525081019061082c91906118bf565b9b9a5050505050505050505050565b6001600160a01b039182165f90815260056020908152604080832093909416825291909152205460ff1690565b5f6001600160e01b031982166380ac58cd60e01b148061089857506001600160e01b03198216635b5e139f60e01b145b8061030d57506301ffc9a760e01b6001600160e01b031983161461030d565b5f818152600260205260408120546001600160a01b03168061030d57604051637e27328960e01b8152600481018490526024016103fd565b6104808383836001610cdc565b5f828152600260205260408120546001600160a01b039081169083161561092857610928818486610de0565b6001600160a01b03811615610962576109435f855f80610cdc565b6001600160a01b0381165f90815260036020526040902080545f190190555b6001600160a01b03851615610990576001600160a01b0385165f908152600360205260409020805460010190555b5f8481526002602052604080822080546001600160a01b0319166001600160a01b0389811691821790925591518793918516917fddf252ad1be2c89b69c2b068fc378daa952ba7f163c4a11628f55a4df523b3ef91a4949350505050565b5f61030d82610e44565b6001600160a01b038216610a2a57604051630b61174360e31b81526001600160a01b03831660048201526024016103fd565b6001600160a01b038381165f81815260056020908152604080832094871680845294825291829020805460ff191686151590811790915591519182527f17307eab39ab6107e8899845ad3d59bd9653f200f220920489ca2b5937696c31910160405180910390a3505050565b6103d4828260405180602001604052805f815250610e4e565b6001600160a01b0383163b15610bd057604051630a85bd0160e11b81526001600160a01b0384169063150b7a0290610af19088908890879087906004016118da565b6020604051808303815f875af1925050508015610b2b575060408051601f3d908101601f19168201909252610b2891810190611916565b60015b610b92573d808015610b58576040519150601f19603f3d011682016040523d82523d5f602084013e610b5d565b606091505b5080515f03610b8a57604051633250574960e11b81526001600160a01b03851660048201526024016103fd565b805181602001fd5b6001600160e01b03198116630a85bd0160e11b14610bce57604051633250574960e11b81526001600160a01b03851660048201526024016103fd565b505b5050505050565b6060815f03610bfd5750506040805180820190915260018152600360fc1b602082015290565b815f5b8115610c265780610c10816116b4565b9150610c1f9050600a83611931565b9150610c00565b5f8167ffffffffffffffff811115610c4057610c406113fc565b6040519080825280601f01601f191660200182016040528015610c6a576020820181803683370190505b5090505b8415610cd457610c7f600183611944565b9150610c8c600a86611634565b610c97906030611957565b60f81b818381518110610cac57610cac61196a565b60200101906001600160f81b03191690815f1a905350610ccd600a86611931565b9450610c6e565b949350505050565b8080610cf057506001600160a01b03821615155b15610db1575f610cff846108b7565b90506001600160a01b03831615801590610d2b5750826001600160a01b0316816001600160a01b031614155b8015610d3e5750610d3c818461083b565b155b15610d675760405163a9fbf51f60e01b81526001600160a01b03841660048201526024016103fd565b8115610daf5783856001600160a01b0316826001600160a01b03167f8c5be1e5ebec7d5bd14f71427d1e84f3dd0314c0f7b2291e5b200ac8c7c3b92560405160405180910390a45b505b50505f90815260046020526040902080546001600160a01b0319166001600160a01b0392909216919091179055565b610deb838383610e65565b610480576001600160a01b038316610e1957604051637e27328960e01b8152600481018290526024016103fd565b60405163177e802f60e01b81526001600160a01b0383166004820152602481018290526044016103fd565b5f61030d82610ec6565b610e588383611039565b610480335f858585610aaf565b5f6001600160a01b03831615801590610cd45750826001600160a01b0316846001600160a01b03161480610e9e5750610e9e848461083b565b80610cd45750505f908152600460205260409020546001600160a01b03908116911614919050565b5f808080805b6004811015610f10575f8051602061199f833981519152868260048110610ef557610ef561196a565b60200201518308915080610f08816116b4565b915050610ecc565b505f5b6008811015611030575f8051602061199f8339815191527f15daf13fa0e10d0ba7e45356d4b5abb9089418daef1f5526e3b8e9e43fc34056830891505f8051602061199f83398151915284830891505f8051602061199f83398151915282830991505f8051602061199f8339815191528283099150600781101561101e575f8051602061199f8339815191527f1c03d53d7fbacd628be5d428c307f45a60d8a70b94d1d234e96b6fd74dace4c0830891505f8051602061199f83398151915282830991505f8051602061199f8339815191527f1d708038e73d37bf3253ce7ffc3d1a9aaf4c72f37c0b70067df0a58b3b0d7708830891505f8051602061199f83398151915282830991505b80611028816116b4565b915050610f13565b50949350505050565b6001600160a01b03821661106257604051633250574960e11b81525f60048201526024016103fd565b5f61106e83835f6108fc565b90506001600160a01b03811615610480576040516339e3563760e11b81525f60048201526024016103fd565b6001600160e01b0319811681146110af575f80fd5b50565b5f602082840312156110c2575f80fd5b81356110cd8161109a565b9392505050565b5f5b838110156110ee5781810151838201526020016110d6565b50505f910152565b5f815180845261110d8160208601602086016110d4565b601f01601f19169290920160200192915050565b602081525f6110cd60208301846110f6565b5f60208284031215611143575f80fd5b5035919050565b80356001600160a01b0381168114611160575f80fd5b919050565b5f8060408385031215611176575f80fd5b61117f8361114a565b946020939093013593505050565b5f805f6060848603121561119f575f80fd5b6111a88461114a565b92506111b66020850161114a565b9150604084013590509250925092565b5f602082840312156111d6575f80fd5b6110cd8261114a565b5f8083601f8401126111ef575f80fd5b50813567ffffffffffffffff811115611206575f80fd5b60208301915083602082850101111561121d575f80fd5b9250929050565b5f805f8060408587031215611237575f80fd5b843567ffffffffffffffff8082111561124e575f80fd5b61125a888389016111df565b90965094506020870135915080821115611272575f80fd5b5061127f878288016111df565b95989497509550505050565b80151581146110af575f80fd5b5f80604083850312156112a9575f80fd5b6112b28361114a565b915060208301356112c28161128b565b809150509250929050565b5f805f805f805f6080888a0312156112e3575f80fd5b87359650602088013567ffffffffffffffff80821115611301575f80fd5b61130d8b838c016111df565b909850965060408a0135915080821115611325575f80fd5b6113318b838c016111df565b909650945060608a0135915080821115611349575f80fd5b506113568a828b016111df565b989b979a50959850939692959293505050565b5f805f805f806060878903121561137e575f80fd5b863567ffffffffffffffff80821115611395575f80fd5b6113a18a838b016111df565b909850965060208901359150808211156113b9575f80fd5b6113c58a838b016111df565b909650945060408901359150808211156113dd575f80fd5b506113ea89828a016111df565b979a9699509497509295939492505050565b634e487b7160e01b5f52604160045260245ffd5b6040805190810167ffffffffffffffff81118282101715611433576114336113fc565b60405290565b5f82601f830112611448575f80fd5b813567ffffffffffffffff80821115611463576114636113fc565b604051601f8301601f19908116603f0116810190828211818310171561148b5761148b6113fc565b816040528381528660208588010111156114a3575f80fd5b836020870160208301375f602085830101528094505050505092915050565b5f805f80608085870312156114d5575f80fd5b6114de8561114a565b93506114ec6020860161114a565b925060408501359150606085013567ffffffffffffffff81111561150e575f80fd5b61151a87828801611439565b91505092959194509250565b5f8060408385031215611537575f80fd5b6115408361114a565b915061154e6020840161114a565b90509250929050565b600181811c9082168061156b57607f821691505b60208210810361158957634e487b7160e01b5f52602260045260245ffd5b50919050565b5f805f606084860312156115a1575f80fd5b833567ffffffffffffffff808211156115b8575f80fd5b6115c487838801611439565b945060208601359150808211156115d9575f80fd5b6115e587838801611439565b935060408601359150808211156115fa575f80fd5b5061160786828701611439565b9150509250925092565b818382375f9101908152919050565b634e487b7160e01b5f52601260045260245ffd5b5f8261164257611642611620565b500690565b81835281816020850137505f828201602090810191909152601f909101601f19169091010190565b604081525f611682604083018688611647565b8281036020840152611695818587611647565b979650505050505050565b634e487b7160e01b5f52601160045260245ffd5b5f600182016116c5576116c56116a0565b5060010190565b7f68747470733a2f2f657263373030372e757261746d616e67756e2e6f76682f6181526f70692f6e66742d6d657461646174612f60801b60208201525f825161171c8160308501602087016110d4565b9190910160300192915050565b5f82601f830112611738575f80fd5b611740611410565b806040840185811115611751575f80fd5b845b8181101561176b578035845260209384019301611753565b509095945050505050565b5f805f6101008486031215611789575f80fd5b6117938585611729565b9250604085605f8601126117a5575f80fd5b6117ad611410565b8060c08701888111156117be575f80fd5b8388015b818110156117e3576117d48a82611729565b845260209093019284016117c2565b508195506117f18982611729565b9450505050509250925092565b8035602083101561030d575f19602084900360031b1b1692915050565b805f5b600281101561046057815184526020938401939091019060010161181e565b610120810161184c828761181b565b6040808301865f5b600281101561187b5761186883835161181b565b9183019160209190910190600101611854565b5050505061188c60c083018561181b565b6101008201835f5b60018110156118b3578151835260209283019290910190600101611894565b50505095945050505050565b5f602082840312156118cf575f80fd5b81516110cd8161128b565b6001600160a01b03858116825284166020820152604081018390526080606082018190525f9061190c908301846110f6565b9695505050505050565b5f60208284031215611926575f80fd5b81516110cd8161109a565b5f8261193f5761193f611620565b500490565b8181038181111561030d5761030d6116a0565b8082018082111561030d5761030d6116a0565b634e487b7160e01b5f52603260045260245ffdfe30644e72e131a029b85045b68181585d2833e84879b9709143e1f593f00000010109b7f411ba0e4c9b2b70caf5c36a7b194be7c11ad24378bf19b1a3580a0a2aa264697066735822122013f205cced3ede18f65fefba6209cf6b30da5773301818a979733e2cf5c6a86764736f6c63430008140033","linkReferences":{}},"methodIdentifiers":{"addAigcData(uint256,bytes,bytes,bytes)":"aea30507","approve(address,uint256)":"095ea7b3","balanceOf(address)":"70a08231","getApproved(uint256)":"081812fc","hashInputs(bytes,bytes)":"8c911276","isApprovedForAll(address,address)":"e985e9c5","mint(bytes,bytes,bytes)":"b7e2a06c","name()":"06fdde03","ownerOf(uint256)":"6352211e","safeTransferFrom(address,address,uint256)":"42842e0e","safeTransferFrom(address,address,uint256,bytes)":"b88d4fde","setApprovalForAll(address,bool)":"a22cb465","supportsInterface(bytes4)":"01ffc9a7","symbol()":"95d89b41","tokenURI(uint256)":"c87b56dd","totalSupply()":"18160ddd","transferFrom(address,address,uint256)":"23b872dd","verifier()":"2b7ac3f3","verify(bytes,bytes,bytes)":"de8f50a1"},"id":2}