{"abi":[{"type":"constructor","inputs":[{"name":"verifier_","type":"address","internalType":"address"}],"stateMutability":"nonpayable"},{"type":"function","name":"addAigcData","inputs":[{"name":"tokenId","type":"uint256","internalType":"uint256"},{"name":"prompt","type":"bytes","internalType":"bytes"},{"name":"aigcData","type":"bytes","internalType":"bytes"},{"name":"proof","type":"bytes","internalType":"bytes"}],"outputs":[],"stateMutability":"nonpayable"},{"type":"function","name":"approve","inputs":[{"name":"to","type":"address","internalType":"address"},{"name":"tokenId","type":"uint256","internalType":"uint256"}],"outputs":[],"stateMutability":"nonpayable"},{"type":"function","name":"balanceOf","inputs":[{"name":"owner","type":"address","internalType":"address"}],"outputs":[{"name":"","type":"uint256","internalType":"uint256"}],"stateMutability":"view"},{"type":"function","name":"getApproved","inputs":[{"name":"tokenId","type":"uint256","internalType":"uint256"}],"outputs":[{"name":"","type":"address","internalType":"address"}],"stateMutability":"view"},{"type":"function","name":"isApprovedForAll","inputs":[{"name":"owner","type":"address","internalType":"address"},{"name":"operator","type":"address","internalType":"address"}],"outputs":[{"name":"","type":"bool","internalType":"bool"}],"stateMutability":"view"},{"type":"function","name":"mint","inputs":[{"name":"to","type":"address","internalType":"address"},{"name":"prompt","type":"bytes","internalType":"bytes"},{"name":"aigcData","type":"bytes","internalType":"bytes"},{"name":"uri","type":"string","internalType":"string"},{"name":"proof","type":"bytes","internalType":"bytes"}],"outputs":[{"name":"tokenId","type":"uint256","internalType":"uint256"}],"stateMutability":"nonpayable"},{"type":"function","name":"name","inputs":[],"outputs":[{"name":"","type":"string","internalType":"string"}],"stateMutability":"view"},{"type":"function","name":"ownerOf","inputs":[{"name":"tokenId","type":"uint256","internalType":"uint256"}],"outputs":[{"name":"","type":"address","internalType":"address"}],"stateMutability":"view"},{"type":"function","name":"safeTransferFrom","inputs":[{"name":"from","type":"address","internalType":"address"},{"name":"to","type":"address","internalType":"address"},{"name":"tokenId","type":"uint256","internalType":"uint256"}],"outputs":[],"stateMutability":"nonpayable"},{"type":"function","name":"safeTransferFrom","inputs":[{"name":"from","type":"address","internalType":"address"},{"name":"to","type":"address","internalType":"address"},{"name":"tokenId","type":"uint256","internalType":"uint256"},{"name":"data","type":"bytes","internalType":"bytes"}],"outputs":[],"stateMutability":"nonpayable"},{"type":"function","name":"setApprovalForAll","inputs":[{"name":"operator","type":"address","internalType":"address"},{"name":"approved","type":"bool","internalType":"bool"}],"outputs":[],"stateMutability":"nonpayable"},{"type":"function","name":"supportsInterface","inputs":[{"name":"interfaceId","type":"bytes4","internalType":"bytes4"}],"outputs":[{"name":"","type":"bool","internalType":"bool"}],"stateMutability":"view"},{"type":"function","name":"symbol","inputs":[],"outputs":[{"name":"","type":"string","internalType":"string"}],"stateMutability":"view"},{"type":"function","name":"tokenURI","inputs":[{"name":"tokenId","type":"uint256","internalType":"uint256"}],"outputs":[{"name":"","type":"string","internalType":"string"}],"stateMutability":"view"},{"type":"function","name":"totalSupply","inputs":[],"outputs":[{"name":"","type":"uint256","internalType":"uint256"}],"stateMutability":"view"},{"type":"function","name":"transferFrom","inputs":[{"name":"from","type":"address","internalType":"address"},{"name":"to","type":"address","internalType":"address"},{"name":"tokenId","type":"uint256","internalType":"uint256"}],"outputs":[],"stateMutability":"nonpayable"},{"type":"function","name":"verifier","inputs":[],"outputs":[{"name":"","type":"address","internalType":"contract IVerifier"}],"stateMutability":"view"},{"type":"function","name":"verify","inputs":[{"name":"prompt","type":"bytes","internalType":"bytes"},{"name":"aigcData","type":"bytes","internalType":"bytes"},{"name":"proof","type":"bytes","internalType":"bytes"}],"outputs":[{"name":"success","type":"bool","internalType":"bool"}],"stateMutability":"view"},{"type":"event","name":"AigcData","inputs":[{"name":"tokenId","type":"uint256","indexed":true,"internalType":"uint256"},{"name":"prompt","type":"bytes","indexed":true,"internalType":"bytes"},{"name":"aigcData","type":"bytes","indexed":false,"internalType":"bytes"},{"name":"proof","type":"bytes","indexed":false,"internalType":"bytes"}],"anonymous":false},{"type":"event","name":"Approval","inputs":[{"name":"owner","type":"address","indexed":true,"internalType":"address"},{"name":"approved","type":"address","indexed":true,"internalType":"address"},{"name":"tokenId","type":"uint256","indexed":true,"internalType":"uint256"}],"anonymous":false},{"type":"event","name":"ApprovalForAll","inputs":[{"name":"owner","type":"address","indexed":true,"internalType":"address"},{"name":"operator","type":"address","indexed":true,"internalType":"address"},{"name":"approved","type":"bool","indexed":false,"internalType":"bool"}],"anonymous":false},{"type":"event","name":"Transfer","inputs":[{"name":"from","type":"address","indexed":true,"internalType":"address"},{"name":"to","type":"address","indexed":true,"internalType":"address"},{"name":"tokenId","type":"uint256","indexed":true,"internalType":"uint256"}],"anonymous":false},{"type":"error","name":"ERC721IncorrectOwner","inputs":[{"name":"sender","type":"address","internalType":"address"},{"name":"tokenId","type":"uint256","internalType":"uint256"},{"name":"owner","type":"address","internalType":"address"}]},{"type":"error","name":"ERC721InsufficientApproval","inputs":[{"name":"operator","type":"address","internalType":"address"},{"name":"tokenId","type":"uint256","internalType":"uint256"}]},{"type":"error","name":"ERC721InvalidApprover","inputs":[{"name":"approver","type":"address","internalType":"address"}]},{"type":"error","name":"ERC721InvalidOperator","inputs":[{"name":"operator","type":"address","internalType":"address"}]},{"type":"error","name":"ERC721InvalidOwner","inputs":[{"name":"owner","type":"address","internalType":"address"}]},{"type":"error","name":"ERC721InvalidReceiver","inputs":[{"name":"receiver","type":"address","internalType":"address"}]},{"type":"error","name":"ERC721InvalidSender","inputs":[{"name":"sender","type":"address","internalType":"address"}]},{"type":"error","name":"ERC721NonexistentToken","inputs":[{"name":"tokenId","type":"uint256","internalType":"uint256"}]}],"bytecode":{"object":"0x608060405234801562000010575f80fd5b5060405162001959380380620019598339810160408190526200003391620000c3565b604051806040016040528060128152602001714f6e2d636861696e204149204f7261636c6560701b815250604051806040016040528060038152602001624f414f60e81b815250815f90816200008a919062000192565b50600162000099828262000192565b5050600780546001600160a01b0319166001600160a01b039390931692909217909155506200025a565b5f60208284031215620000d4575f80fd5b81516001600160a01b0381168114620000eb575f80fd5b9392505050565b634e487b7160e01b5f52604160045260245ffd5b600181811c908216806200011b57607f821691505b6020821081036200013a57634e487b7160e01b5f52602260045260245ffd5b50919050565b601f8211156200018d575f81815260208120601f850160051c81016020861015620001685750805b601f850160051c820191505b81811015620001895782815560010162000174565b5050505b505050565b81516001600160401b03811115620001ae57620001ae620000f2565b620001c681620001bf845462000106565b8462000140565b602080601f831160018114620001fc575f8415620001e45750858301515b5f19600386901b1c1916600185901b17855562000189565b5f85815260208120601f198616915b828110156200022c578886015182559484019460019091019084016200020b565b50858210156200024a57878501515f19600388901b60f8161c191681555b5050505050600190811b01905550565b6116f180620002685f395ff3fe608060405234801561000f575f80fd5b5060043610610111575f3560e01c806370a082311161009e578063b88d4fde1161006e578063b88d4fde14610236578063c87b56dd14610249578063de8f50a11461025c578063e985e9c51461026f578063f405e53014610282575f80fd5b806370a08231146101f557806395d89b4114610208578063a22cb46514610210578063aea3050714610223575f80fd5b806318160ddd116100e457806318160ddd1461019257806323b872dd146101a95780632b7ac3f3146101bc57806342842e0e146101cf5780636352211e146101e2575f80fd5b806301ffc9a71461011557806306fdde031461013d578063081812fc14610152578063095ea7b31461017d575b5f80fd5b610128610123366004610ee7565b610295565b60405190151581526020015b60405180910390f35b6101456102f5565b6040516101349190610f56565b610165610160366004610f68565b610384565b6040516001600160a01b039091168152602001610134565b61019061018b366004610f93565b6103ab565b005b61019b60065481565b604051908152602001610134565b6101906101b7366004610fbd565b6103ba565b600754610165906001600160a01b031681565b6101906101dd366004610fbd565b610448565b6101656101f0366004610f68565b610467565b61019b610203366004610ffb565b610471565b6101456104b6565b61019061021e366004611023565b6104c5565b61019061023136600461109f565b6104d0565b6101906102443660046111d8565b6105e2565b610145610257366004610f68565b6105fa565b61012861026a366004611240565b61062b565b61012861027d3660046112d3565b6106fc565b61019b6102903660046112ff565b610729565b5f6001600160e01b031982166301ffc9a760e01b14806102c557506001600160e01b0319821663da0d82f560e01b145b806102e057506001600160e01b03198216635b5e139f60e01b145b806102ef57506102ef826107d1565b92915050565b60605f8054610303906113ce565b80601f016020809104026020016040519081016040528092919081815260200182805461032f906113ce565b801561037a5780601f106103515761010080835404028352916020019161037a565b820191905f5260205f20905b81548152906001019060200180831161035d57829003601f168201915b5050505050905090565b5f61038e82610820565b505f828152600460205260409020546001600160a01b03166102ef565b6103b6828233610858565b5050565b6001600160a01b0382166103e857604051633250574960e11b81525f60048201526024015b60405180910390fd5b5f6103f4838333610865565b9050836001600160a01b0316816001600160a01b031614610442576040516364283d7b60e01b81526001600160a01b03808616600483015260248201849052821660448201526064016103df565b50505050565b61046283838360405180602001604052805f8152506105e2565b505050565b5f6102ef82610820565b5f6001600160a01b03821661049b576040516322718ad960e21b81525f60048201526024016103df565b506001600160a01b03165f9081526003602052604090205490565b606060018054610303906113ce565b6103b6338383610957565b5f6104da88610467565b6001600160a01b0316036105305760405162461bcd60e51b815260206004820152601a60248201527f455243373030373a206e6f6e6578697374656e7420746f6b656e00000000000060448201526064016103df565b61053e86868686868661062b565b6105835760405162461bcd60e51b815260206004820152601660248201527522a9219b98181b9d1034b73b30b634b210383937b7b360511b60448201526064016103df565b8585604051610593929190611406565b6040518091039020877f65deac95b53ba76b9cdc6cf446af81731e1218c91eaf9811a95d28bde23b893e868686866040516105d1949392919061143d565b60405180910390a350505050505050565b6105ed8484846103ba565b61044233858585856109f5565b606061060582610b1d565b604051602001610615919061146e565b6040516020818303038152906040529050919050565b5f8061063988888888610c22565b6040805160018082528183019092529192505f91906020808301908036833701905050905081815f81518110610671576106716114c7565b6020908102919091010152600754604051631e8e1e1360e01b81526001600160a01b0390911690631e8e1e13906106b0908890889086906004016114db565b602060405180830381865afa1580156106cb573d5f803e3d5ffd5b505050506040513d601f19601f820116820180604052508101906106ef9190611532565b9998505050505050505050565b6001600160a01b039182165f90815260056020908152604080832093909416825291909152205460ff1690565b5f808080610739898b018b61154d565b919450925090506001600160a01b038216331461078f5760405162461bcd60e51b815260206004820152601460248201527313db9b1e48185d5d1a1bdc8818d85b881b5a5b9d60621b60448201526064016103df565b600654935061079e3385610c75565b6107ad848d8d8d8d8b8b6104d0565b60068054905f6107bc836115a6565b91905055505050509998505050505050505050565b5f6001600160e01b031982166380ac58cd60e01b148061080157506001600160e01b03198216635b5e139f60e01b145b806102ef57506301ffc9a760e01b6001600160e01b03198316146102ef565b5f818152600260205260408120546001600160a01b0316806102ef57604051637e27328960e01b8152600481018490526024016103df565b6104628383836001610c8e565b5f828152600260205260408120546001600160a01b039081169083161561089157610891818486610d92565b6001600160a01b038116156108cb576108ac5f855f80610c8e565b6001600160a01b0381165f90815260036020526040902080545f190190555b6001600160a01b038516156108f9576001600160a01b0385165f908152600360205260409020805460010190555b5f8481526002602052604080822080546001600160a01b0319166001600160a01b0389811691821790925591518793918516917fddf252ad1be2c89b69c2b068fc378daa952ba7f163c4a11628f55a4df523b3ef91a4949350505050565b6001600160a01b03821661098957604051630b61174360e31b81526001600160a01b03831660048201526024016103df565b6001600160a01b038381165f81815260056020908152604080832094871680845294825291829020805460ff191686151590811790915591519182527f17307eab39ab6107e8899845ad3d59bd9653f200f220920489ca2b5937696c31910160405180910390a3505050565b6001600160a01b0383163b15610b1657604051630a85bd0160e11b81526001600160a01b0384169063150b7a0290610a379088908890879087906004016115be565b6020604051808303815f875af1925050508015610a71575060408051601f3d908101601f19168201909252610a6e918101906115fa565b60015b610ad8573d808015610a9e576040519150601f19603f3d011682016040523d82523d5f602084013e610aa3565b606091505b5080515f03610ad057604051633250574960e11b81526001600160a01b03851660048201526024016103df565b805181602001fd5b6001600160e01b03198116630a85bd0160e11b14610b1457604051633250574960e11b81526001600160a01b03851660048201526024016103df565b505b5050505050565b6060815f03610b435750506040805180820190915260018152600360fc1b602082015290565b815f5b8115610b6c5780610b56816115a6565b9150610b659050600a83611629565b9150610b46565b5f8167ffffffffffffffff811115610b8657610b8661113b565b6040519080825280601f01601f191660200182016040528015610bb0576020820181803683370190505b5090505b8415610c1a57610bc560018361163c565b9150610bd2600a8661164f565b610bdd906030611662565b60f81b818381518110610bf257610bf26114c7565b60200101906001600160f81b03191690815f1a905350610c13600a86611629565b9450610bb4565b949350505050565b5f808080610c328587018761154d565b9250925092508787848484604051602001610c51959493929190611675565b60408051601f19818403018152919052805160209091012098975050505050505050565b6103b6828260405180602001604052805f815250610df6565b8080610ca257506001600160a01b03821615155b15610d63575f610cb184610820565b90506001600160a01b03831615801590610cdd5750826001600160a01b0316816001600160a01b031614155b8015610cf05750610cee81846106fc565b155b15610d195760405163a9fbf51f60e01b81526001600160a01b03841660048201526024016103df565b8115610d615783856001600160a01b0316826001600160a01b03167f8c5be1e5ebec7d5bd14f71427d1e84f3dd0314c0f7b2291e5b200ac8c7c3b92560405160405180910390a45b505b50505f90815260046020526040902080546001600160a01b0319166001600160a01b0392909216919091179055565b610d9d838383610e0d565b610462576001600160a01b038316610dcb57604051637e27328960e01b8152600481018290526024016103df565b60405163177e802f60e01b81526001600160a01b0383166004820152602481018290526044016103df565b610e008383610e6e565b610462335f8585856109f5565b5f6001600160a01b03831615801590610c1a5750826001600160a01b0316846001600160a01b03161480610e465750610e4684846106fc565b80610c1a5750505f908152600460205260409020546001600160a01b03908116911614919050565b6001600160a01b038216610e9757604051633250574960e11b81525f60048201526024016103df565b5f610ea383835f610865565b90506001600160a01b03811615610462576040516339e3563760e11b81525f60048201526024016103df565b6001600160e01b031981168114610ee4575f80fd5b50565b5f60208284031215610ef7575f80fd5b8135610f0281610ecf565b9392505050565b5f5b83811015610f23578181015183820152602001610f0b565b50505f910152565b5f8151808452610f42816020860160208601610f09565b601f01601f19169290920160200192915050565b602081525f610f026020830184610f2b565b5f60208284031215610f78575f80fd5b5035919050565b6001600160a01b0381168114610ee4575f80fd5b5f8060408385031215610fa4575f80fd5b8235610faf81610f7f565b946020939093013593505050565b5f805f60608486031215610fcf575f80fd5b8335610fda81610f7f565b92506020840135610fea81610f7f565b929592945050506040919091013590565b5f6020828403121561100b575f80fd5b8135610f0281610f7f565b8015158114610ee4575f80fd5b5f8060408385031215611034575f80fd5b823561103f81610f7f565b9150602083013561104f81611016565b809150509250929050565b5f8083601f84011261106a575f80fd5b50813567ffffffffffffffff811115611081575f80fd5b602083019150836020828501011115611098575f80fd5b9250929050565b5f805f805f805f6080888a0312156110b5575f80fd5b87359650602088013567ffffffffffffffff808211156110d3575f80fd5b6110df8b838c0161105a565b909850965060408a01359150808211156110f7575f80fd5b6111038b838c0161105a565b909650945060608a013591508082111561111b575f80fd5b506111288a828b0161105a565b989b979a50959850939692959293505050565b634e487b7160e01b5f52604160045260245ffd5b5f82601f83011261115e575f80fd5b813567ffffffffffffffff808211156111795761117961113b565b604051601f8301601f19908116603f011681019082821181831017156111a1576111a161113b565b816040528381528660208588010111156111b9575f80fd5b836020870160208301375f602085830101528094505050505092915050565b5f805f80608085870312156111eb575f80fd5b84356111f681610f7f565b9350602085013561120681610f7f565b925060408501359150606085013567ffffffffffffffff811115611228575f80fd5b6112348782880161114f565b91505092959194509250565b5f805f805f8060608789031215611255575f80fd5b863567ffffffffffffffff8082111561126c575f80fd5b6112788a838b0161105a565b90985096506020890135915080821115611290575f80fd5b61129c8a838b0161105a565b909650945060408901359150808211156112b4575f80fd5b506112c189828a0161105a565b979a9699509497509295939492505050565b5f80604083850312156112e4575f80fd5b82356112ef81610f7f565b9150602083013561104f81610f7f565b5f805f805f805f805f60a08a8c031215611317575f80fd5b893561132281610f7f565b985060208a013567ffffffffffffffff8082111561133e575f80fd5b61134a8d838e0161105a565b909a50985060408c0135915080821115611362575f80fd5b61136e8d838e0161105a565b909850965060608c0135915080821115611386575f80fd5b6113928d838e0161105a565b909650945060808c01359150808211156113aa575f80fd5b506113b78c828d0161105a565b915080935050809150509295985092959850929598565b600181811c908216806113e257607f821691505b60208210810361140057634e487b7160e01b5f52602260045260245ffd5b50919050565b818382375f9101908152919050565b81835281816020850137505f828201602090810191909152601f909101601f19169091010190565b604081525f611450604083018688611415565b8281036020840152611463818587611415565b979650505050505050565b7f68747470733a2f2f657263373030372e757261746d616e67756e2e6f76682f6181526b70692f6d657461646174612f60a01b60208201525f82516114ba81602c850160208701610f09565b91909101602c0192915050565b634e487b7160e01b5f52603260045260245ffd5b604081525f6114ee604083018587611415565b8281036020848101919091528451808352858201928201905f5b8181101561152457845183529383019391830191600101611508565b509098975050505050505050565b5f60208284031215611542575f80fd5b8151610f0281611016565b5f805f6060848603121561155f575f80fd5b833567ffffffffffffffff811115611575575f80fd5b6115818682870161114f565b9350506020840135610fea81610f7f565b634e487b7160e01b5f52601160045260245ffd5b5f600182016115b7576115b7611592565b5060010190565b6001600160a01b03858116825284166020820152604081018390526080606082018190525f906115f090830184610f2b565b9695505050505050565b5f6020828403121561160a575f80fd5b8151610f0281610ecf565b634e487b7160e01b5f52601260045260245ffd5b5f8261163757611637611615565b500490565b818103818111156102ef576102ef611592565b5f8261165d5761165d611615565b500690565b808201808211156102ef576102ef611592565b848682375f8582015f81528551611690818360208a01610f09565b60609590951b6bffffffffffffffffffffffff1916940193845250506014820152603401939250505056fea26469706673582212206776ebec51771b87c6e36e2087c4d2ad7e421d026e50a5ef66f342e828f5ce7764736f6c63430008140033","linkReferences":{}},"methodIdentifiers":{"addAigcData(uint256,bytes,bytes,bytes)":"aea30507","approve(address,uint256)":"095ea7b3","balanceOf(address)":"70a08231","getApproved(uint256)":"081812fc","isApprovedForAll(address,address)":"e985e9c5","mint(address,bytes,bytes,string,bytes)":"f405e530","name()":"06fdde03","ownerOf(uint256)":"6352211e","safeTransferFrom(address,address,uint256)":"42842e0e","safeTransferFrom(address,address,uint256,bytes)":"b88d4fde","setApprovalForAll(address,bool)":"a22cb465","supportsInterface(bytes4)":"01ffc9a7","symbol()":"95d89b41","tokenURI(uint256)":"c87b56dd","totalSupply()":"18160ddd","transferFrom(address,address,uint256)":"23b872dd","verifier()":"2b7ac3f3","verify(bytes,bytes,bytes)":"de8f50a1"},"id":2}